S00F00004144435F365F302E7372656329
S11300000C942A000C9447000C9447000C9447006D
S11300100C9447000C949E000C9447000C944700E9
S11300200C9447000C9447000C9447000C94470030
S11300300C9447000C9447000C9447000C94470020
S11300400C9462000C9447000C9447000C944700F5
S11300500C94470011241FBECFE5D8E0DEBFCDBF0E
S113006010E0A0E6B0E0ECEAF5E002C005900D92E5
S1130070A637B107D9F720E0A6E7B0E001C01D928A
S1130080A937B207E1F70E9449000C94D4020C94FA
S113009000008FEF84BB15BA81BB12BA89B78064A4
S11300A089BF85B5826085BD86B18E6E86B987B1FC
S11300B08F7387B9789483ED90E30197F1F700C0CB
S11300C00000F9CF1F920F920FB60F9211242F93B5
S11300D03F934F935F936F937F938F939F93AF93CC
S11300E0BF93EF93FF9364B175B16F5F7F4F80E06F
S11300F090E00E94CA0120E030E040EA5BE30E9405
S1130100300220E030E048EC52E40E9430020E94C9
S11301109B017093770060937600FF91EF91BF91FC
S1130120AF919F918F917F916F915F914F913F918B
S11301302F910F900FBE0F901F9018951F920F9242
S11301400FB60F9211242F933F934F935F936F93A6
S11301507F938F939F93AF93BF93EF93FF938FEF0F
S113016082BB2091780081E090E002C0880F991F43
S11301702A95E2F785BB80917800813009F441C06B
S113018038F0823009F470C0833009F497C0B8C0E5
S113019040917600509177009A01329522952F7004
S11301A023273F702327A7E4B3E00E94C502969556
S11301B08795969587959695879560E177E2869FD2
S11301C09001879F300D969F300D1124CA01821B28
S11301D0930B9C013695279536952795369527954B
S11301E0A5ECB0E20E94C502929582958F70892792
S11301F09F708927FC01E559FF4F8081809582BB60
S11302007FC040917600509177009A0136952795EA
S11302103695279536952795A5ECB0E20E94C50240
S1130220929582958F7089279F70892768EE73E075
S1130230869F9001879F300D969F300D1124CA012F
S1130240821B930B9C013695279536952795ABE732
S1130250B4E10E94C50296958795FC01E05AFF4FD0
S11302608081809582BB4CC040917600509177008C
S11302709A013695279536952795ABE7B4E10E9408
S1130280C5029695879564E6689F9001699F300D35
S11302901124CA01821B930B9C01ADECBCEC0E949F
S11302A0C502969587959695879596958795FC01B1
S11302B0E559FF4F8081809582BB22C04091760032
S11302C0509177009A01ADECBCEC0E94C502969562
S11302D0879596958795969587959C01220F331F50
S11302E0880F991F880F991F880F991F820F931FDA
S11302F0481B590BFA01E559FF4F8081809582BB59
S11303008091780091E0980F90937800833010F0FA
S113031010927800FF91EF91BF91AF919F918F91CF
S11303207F916F915F914F913F912F910F900FBEED
S11303300F901F9018950E940F0288F09F5798F015
S1130340B92F9927B751B0F0E1F0660F771F881FD6
S1130350991F1AF0BA95C9F714C0B13091F00E94F0
S11303602902B1E008950C942902672F782F882779
S1130370B85F39F0B93FCCF3869577956795B39517
S1130380D9F73EF490958095709561957F4F8F4F86
S11303909F4F0895E89409C097FB3EF4909580958B
S11303A0709561957F4F8F4F9F4F9923A9F0F92F37
S11303B096E9BB279395F695879577956795B795B5
S11303C0F111F8CFFAF4BB0F11F460FF1BC06F5F9B
S11303D07F4F8F4F9F4F16C0882311F096E911C0AD
S11303E0772321F09EE8872F762F05C0662371F0CE
S11303F096E8862F70E060E02AF09A95660F771FE2
S1130400881FDAF7880F9695879597F9089557FD11
S11304109058440F551F59F05F3F71F04795880F6E
S113042097FB991F61F09F3F79F087950895121605
S113043013061406551FF2CF4695F1DF08C01616B1
S113044017061806991FF1CF869571056105089462
S11304500895E894BB2766277727CB0197F9089579
S11304600E9443020C94B4020E94A60238F00E9437
S1130470AD0220F0952311F00C949D020C94A3027C
S113048011240C942A020E94070270F3959FC1F371
S1130490950F50E0551F629FF001729FBB27F00D2E
S11304A0B11D639FAA27F00DB11DAA1F649F662783
S11304B0B00DA11D661F829F2227B00DA11D621FD2
S11304C0739FB00DA11D621F839FA00D611D221F8C
S11304D0749F3327A00D611D231F849F600D211D70
S11304E0822F762F6A2F11249F5750409AF0F1F0F3
S11304F088234AF0EE0FFF1FBB1F661F771F881F5C
S113050091505040A9F79E3F510580F00C949D02F4
S11305100C942A025F3FE4F3983ED4F386957795D2
S11305206795B795F795E7959F5FC1F7FE2B880F01
S1130530911D9695879597F9089597F99F6780E897
S113054070E060E008959FEF80EC089500240A9421
S11305501616170618060906089500240A9412169A
S11305601306140605060895092E0394000C11F4CD
S1130570882352F0BB0F40F4BF2B11F460FF04C07A
S11305806F5F7F4F8F4F9F4F0895A29FB001B39F1E
S1130590C001A39F700D811D1124911DB29F700D88
S10F05A0811D1124911D0895F894FFCFD3
S11305ACBF86DBCFE6EDFD87FFEFE73F065B4F66CB
S10905BC6D7D077F6F67EF
S9030000FC
