:020000020000FC
:1000000017E402E81DBD0CBD2CB53DB512E022245D
:10001000210E13E03324310E3324320C00E00EBFE6
:100020000FEA0DBF05E0502E06E0602E07E0702EAF
:100030005F926F927F9208B315B3010F0093700027
:100040001DB50CB521E032E0020F131F7BE78EEDEA
:10005000709580957E5D8443762F7770770F770F4C
:10006000770F770F770F80818170880F880F880F47
:10007000782B672F05B3108101230095202F392F8E
:0A0080003095432F2423D22E008177
:00000001FF
