:100000000C942A000C9447000C9447000C94470071
:100010000C9447000C9470000C9447000C9447001B
:100020000C9447000C9447000C9447000C94470034
:100030000C9447000C9447000C9447000C94470024
:100040000C945C000C9447000C9447000C944700FF
:100050000C94470011241FBECFE5D8E0DEBFCDBF12
:1000600010E0A0E6B0E0E4E2F2E002C005900D92FC
:10007000AC36B107D9F710E0ACE6B0E001C01D9294
:10008000A537B107E1F70E9449000C9410010C94C8
:1000900000008FEF84BB15BA81BB12BA89B78064A8
:1000A00089BF85B5826085BD86B18E6E86B987B100
:1000B0008F7387B97894FFCF1F920F920FB60F926C
:1000C00011248F939F9384B195B190936D00809389
:1000D0006C009F918F910F900FBE0F901F901895FD
:1000E0001F920F920FB60F9211242F933F934F93AD
:1000F0005F936F937F938F939F93AF93BF93EF9390
:10010000FF938FEF82BB80916E0021E030E0A90168
:1001100002C0440F551F8A95E2F745BB80916E00DF
:100120008130D9F0813030F0823051F1833009F0E4
:1001300048C039C080916C0090916D0060E177E219
:100140000E94FC0068EE73E00E94FC00FB01E05A94
:10015000FF4F8081809582BB34C080916C0090916C
:100160006D0068EE73E00E94FC0064E670E00E949F
:10017000FC00FB01E05AFF4F8081809582BB21C0CB
:1001800080916C0090916D0064E670E00E94FC002C
:100190006AE070E00E94FC00FB01E05AFF4F8081A2
:1001A000809582BB0EC080916C0090916D006AE0DA
:1001B00070E00E94FC00FC01E05AFF4F80818095B6
:1001C00082BB80916E00982F9F5F90936E0083306A
:1001D00010F010926E00FF91EF91BF91AF919F913F
:1001E0008F917F916F915F914F913F912F910F90E0
:1001F0000FBE0F901F901895AA1BBB1B51E107C0A3
:10020000AA1FBB1FA617B70710F0A61BB70B881FA6
:10021000991F5A95A9F780959095BC01CD01089535
:04022000F894FFCF80
:0C0224003F065B4F666D7D077F6F80001A
:00000001FF
