:020000020000FC
:10000000000000003FE248E7349F0C940A00000023
:10001000000000001FE228E70024112412021FE262
:1000200028E7002411241203EAE1F0E000000000B8
:1000300000001FE228E7002411241A031FE228E72A
:10004000002411249A039EED9DBF1FE228E700249F
:1000500011249203EBE4F0E030E02BE1FF27EE27E0
:10006000F90114902590E89500240000000000009C
:100070003DE94FEA54E867E5000000000000530F37
:10008000641F72E164E155E247E8641B751F08953F
:00000001FF
