:100000000C942A000C9434000C9434000C943400AA
:100010000C9434000C9434000C9434000C94340090
:100020000C9434000C9434000C9434000C94340080
:100030000C9434000C9434000C9434000C94340070
:100040000C9434000C9434000C9434000C94340060
:100050000C94340011241FBECFE5D4E0DEBFCDBF29
:100060000E9436000C94EB000C94000080E49CE9A4
:1000700020E931E0F9013197F1F70197D9F70E94B2
:10008000530089E190E06AE00E945E00882341F01D
:1000900080E69AEE0197F1F789E190E00E949A00DC
:1000A00080E090E008958CE080B980B18A3010F44F
:1000B0008AE080B981B18C7F81B90895282F54EAF4
:1000C00040EA34E856BF06B607FEFDCF81B1887F0F
:1000D000883071F543B936BF06B607FEFDCF81B152
:1000E000887F883179F793B984E886BF06B607FE22
:1000F000FDCF81B1887F8832D9F423B984E886BFE7
:1001000006B607FEFDCF81B1887F883289F463B9D6
:1001100084E886BF06B607FEFDCF81B1887F8832AE
:1001200039F484E986BF06B604FCFDCF81E008956A
:1001300080E00895282F54EA40EA34E856BF06B616
:1001400007FEFDCF81B1887F883009F041C043B9F7
:1001500036BF06B607FEFDCF81B1887F883171F7C3
:1001600093B984E886BF06B607FEFDCF81B1887FCC
:10017000883271F523B984E886BF06B607FEFDCF45
:1001800081B1887F883221F584EA86BF06B607FEF2
:10019000FDCF81B1887F8031D9F481EA83B984E8C9
:1001A00086BF06B607FEFDCF81B1887F803481F41B
:1001B00084E886BF06B607FEFDCF81B1887F88350B
:1001C00039F493B184E986BF06B604FCFDCF01C0C3
:0A01D00090E0892F0895F894FFCF06
:00000001FF
