:100000000C942A000C9434000C9434000C943400AA
:100010000C9434000C9434000C9434000C94340090
:100020000C9434000C9434000C9434000C94340080
:100030000C9434000C9434000C9434000C94340070
:100040000C9434000C9434000C9434000C94340060
:100050000C94340011241FBECFE5D4E0DEBFCDBF29
:100060000E94DB000C94FB000C94000089EF80B927
:1000700080B18A3010F48AE080B981B18C7F81B977
:10008000089534EA50EA44E836BF06B607FEFDCFCD
:1000900021B1287F283071F553B946BF06B607FE57
:1000A000FDCF21B1287F283179F793B994E896BF25
:1000B00006B607FEFDCF91B1987F9832E9F483B977
:1000C00084E886BF06B607FEFDCF81B1887F8832FF
:1000D000A9F463B984E886BF06B607FEFDCF81B1F7
:1000E000887F883269F484E986BF06B604FCFDCFB8
:1000F00081E0089580E0089580E0089580E008950B
:1001000080E0089534EA50EA44E836BF06B607FEB8
:10011000FDCF21B1287F283009F041C053B946BF37
:1001200006B607FEFDCF21B1287F283171F793B9BC
:1001300094E896BF06B607FEFDCF91B1987F98323E
:1001400081F583B984E886BF06B607FEFDCF81B18D
:10015000887F883241F584EA86BF06B607FEFDCF68
:1001600081B1887F803109F581EA83B984E886BF4F
:1001700006B607FEFDCF81B1887F8034C1F484E8E4
:1001800086BF06B607FEFDCF81B1887F883589F42A
:1001900083B194E996BF06B604FCFDCF089580E0D4
:1001A000089580E0089580E0089580E0089580E05B
:1001B000089580E008952FEF8BE792E92150804069
:1001C0009040E1F700C000000E9436006AE089E13B
:1001D00090E00E944100882359F08FE59AEE019744
:1001E000F1F700C0000089E190E00E9482008BBB23
:0A01F00080E090E00895F894FFCF3E
:00000001FF
